:100000000C942A000C9447000C9447000C94470071
:100010000C9447000C9447000C9447000C948B07F9
:100020000C9447000C9447000C9447000C94470034
:100030000C9447000C9435080C9447000C9447002E
:100040000C9447000C9447000C9447000C94470014
:100050000C94470011241FBECFE5D8E0DEBFCDBF12
:1000600011E0A0E6B0E0E2E5F6E102C005900D92F5
:10007000A839B107D9F711E0A8E9B1E001C01D9294
:10008000A23CB107E1F70E94D3090C94270B0C9412
:100090000000EF92FF920F931F937B018C0120E0F1
:1000A00030E040E05FE40E94190388238CF0C8012F
:1000B000B70120E030E040E05FE40E94C1010E940F
:1000C00049039B01AC01205030404040504806C0DD
:1000D000C801B7010E9449039B01AC01B901CA01E3
:1000E0001F910F91FF90EF900895A0E0B0E0EBE733
:1000F000F0E00C94AB0ADC012B01FA019C919230E8
:1001000008F439C1EB018881823008F433C194309E
:1001100069F4843009F02FC111969C91119789815F
:10012000981709F428C1AEE8B0E025C1843009F47D
:1001300021C18230A9F4923009F01DC19A01AD01AC
:1001400088E0EA010990AE01E90109929E0181501F
:10015000C1F7E201898111969C918923818308C1AD
:10016000923009F407C112962D903C901397EB0141
:100170008A819B811496AD90BD90CD90DC901797AD
:10018000EC80FD800E811F819101281B390BB90184
:1001900037FF04C066277727621B730B6032710537
:1001A0000CF061C0121613066CF537014801062EDB
:1001B00004C096948794779467940A94D2F721E0C8
:1001C00030E040E050E004C0220F331F441F551FB1
:1001D0006A95D2F721503040404050402E213F21B7
:1001E00040235123211531054105510521F021E01E
:1001F00030E040E050E079018A01E628F72808293C
:1002000019293CC0232BD1F1260E371E350146019A
:10021000062E04C096948794779467940A94D2F734
:1002200021E030E040E050E004C0220F331F441FC3
:10023000551F6A95D2F721503040404050402A2146
:100240003B214C215D21211531054105510521F04E
:1002500021E030E040E050E059016A01A628B728CB
:10026000C828D9280BC0821593052CF01C01AA249C
:10027000BB24650103C0EE24FF24870111969C91E5
:10028000D20111968C91981709F445C0992339F041
:10029000A80197012A193B094C095D0906C0A6016E
:1002A00095012E193F09400B510B57FD08C01182D3
:1002B0003382228224833583468357831DC081E0A5
:1002C00081833382228288279927DC01821B930B4A
:1002D000A40BB50B84839583A683B7830DC0220F2F
:1002E000331F441F551F24833583468357838281E0
:1002F000938101979383828324813581468157813D
:10030000DA01C9010197A109B1098F5F9F4FAF4F72
:10031000BF4328F30BC0918333822282EA0CFB1C7B
:100320000C1D1D1DE482F5820683178383E0808304
:10033000248135814681578157FF1AC0C901AA27F8
:1003400097FDA095BA2F81709070A070B0705695EF
:10035000479537952795822B932BA42BB52B848318
:100360009583A683B7838281938101969383828349
:10037000DF0101C0D201CD01CDB7DEB7E2E10C94BF
:10038000C70AA0E2B0E0E7ECF1E00C94B70A698399
:100390007A838B839C832D833E834F835887E9E048
:1003A000EE2EF12CEC0EFD1ECE010196B7010E943F
:1003B0003A058E010F5E1F4FCE010596B8010E94CF
:1003C0003A058A8991E089278A8BC701B801AE0175
:1003D000475E5F4F0E9475000E946504A096E6E0AC
:1003E0000C94D30AA0E2B0E0E8EFF1E00C94B70A75
:1003F00069837A838B839C832D833E834F835887C5
:10040000F9E0EF2EF12CEC0EFD1ECE010196B701A6
:100410000E943A058E010F5E1F4FCE010596B8016E
:100420000E943A05C701B801AE01475E5F4F0E94C6
:1004300075000E946504A096E6E00C94D30AA0E241
:10044000B0E0E5E2F2E00C94AB0A69837A838B8337
:100450009C832D833E834F835887CE010196BE0136
:10046000675F7F4F0E943A05CE010596BE016F5E21
:100470007F4F0E943A059985923088F089898230B1
:10048000C8F0943019F4823051F404C0843029F457
:10049000923081F48EE890E0C6C0923049F420E0BA
:1004A0009A858A89981321E02A87CE010996BBC0D4
:1004B000823049F420E09A858A89981321E02A8BBA
:1004C000CE014196B0C02D843E844F8458886D88FB
:1004D0007E888F88988CEE24FF248701AA24BB2471
:1004E000650140E050E060E070E0E0E0F0E0C10174
:1004F00081709070892BE9F0E60CF71C081D191D1E
:100500009A01AB012A0D3B1D4C1D5D1D80E090E062
:10051000A0E0B0E0E614F7040805190520F481E036
:1005200090E0A0E0B0E0BA01A901480F591F6A1F8E
:100530007B1FAA0CBB1CCC1CDD1C97FE08C081E0F5
:1005400090E0A0E0B0E0A82AB92ACA2ADB2A3196B6
:10055000E032F10549F0660C771C881C991C569412
:10056000479437942794C3CFFA85EA892B893C892D
:100570008B859C85280F391F2E5F3F4F17C0CA01FE
:1005800081709070892B61F016950795F794E79428
:1005900080E090E0A0E0B0E8E82AF92A0A2B1B2BC3
:1005A00076956795579547952F5F3F4F77FDE7CF36
:1005B0000CC0440F551F661F771F17FD4160EE0CDE
:1005C000FF1C001F111F21503040403090E05907A0
:1005D00090E0690790E4790760F32B8F3C8FDB0193
:1005E000CA018F779070A070B07080349105A1051A
:1005F000B10561F447FD0AC0E114F10401051105DC
:1006000029F0405C5F4F6F4F7F4F40781A8EFE1786
:1006100011F081E08A8F4D8F5E8F6F8F78A383E01A
:10062000898FCE0149960E946504A096E2E10C9460
:10063000C70AA8E1B0E0EFE1F3E00C94B70A6983E0
:100640007A838B839C832D833E834F83588789E0F5
:10065000E82EF12CEC0EFD1ECE010196B7010E9492
:100660003A058E010F5E1F4FCE010596B8010E941C
:100670003A058985823040F08989823028F0C701A7
:10068000B8010E94B20501C08FEF6896E6E00C94B5
:10069000D30AACE0B0E0EFE4F3E00C94BB0A69836A
:1006A0007A838B839C83CE010196BE016B5F7F4F63
:1006B0000E943A058D81823061F1823050F18430A0
:1006C00021F48E81882351F12EC02F81388537FD8A
:1006D00020C06E812F3131051CF06623F9F023C054
:1006E0008EE190E0821B930B29853A854B855C85D2
:1006F00004C056954795379527958A95D2F7662376
:10070000B1F050954095309521953F4F4F4F5F4F39
:100710000EC020E030E040E050E009C02FEF3FEF96
:100720004FEF5FE704C020E030E040E050E8B9015F
:10073000CA012C96E2E00C94D70AA8E0B0E0E3EA04
:10074000F3E00C94B30A7B018C01611571058105FE
:10075000910519F482E0898360C083E089838EE18A
:10076000C82ED12CDC82CB82ED82FE820F831887CB
:10077000C801B7010E941604FC013197F7FF3BC086
:10078000222733272E1B3F0B57016801022E04C07E
:10079000D694C794B794A7940A94D2F740E050E057
:1007A00060E070E081E090E0A0E0B0E004C0880F7D
:1007B000991FAA1FBB1F2A95D2F70197A109B1095A
:1007C0008E219F21A023B1230097A105B10521F01F
:1007D00041E050E060E070E04A295B296C297D2906
:1007E0004D835E836F8378878EE190E08E1B9F0B35
:1007F0009C838B8312C0309781F00E2E04C0EE0CC8
:10080000FF1C001F111F0A94D2F7ED82FE820F8396
:100810001887CE1ADF0ADC82CB821A82CE010196BB
:100820000E9465042896EAE00C94CF0AEF92FF92AA
:100830000F931F937B018C0180E0E81680E0F8069F
:1008400081E0080780E0180788F48FEFE816F104CC
:100850000105110531F028F088E090E0A0E0B0E05B
:1008600017C080E090E0A0E0B0E012C080E0E816A1
:1008700080E0F80680E0080781E0180728F088E1AA
:1008800090E0A0E0B0E004C080E190E0A0E0B0E043
:1008900020E230E040E050E0281B390B4A0B5B0BB4
:1008A00004C016950795F794E7948A95D2F7F70157
:1008B000EA56FF4F8081281B310941095109C901BE
:1008C0001F910F91FF90EF900895DF92EF92FF92AA
:1008D0000F931F93FC01E480F58006811781D1807E
:1008E0008081823048F480E090E0A0E1B0E0E82A26
:1008F000F92A0A2B1B2BA5C0843009F49FC0823033
:1009000021F4EE24FF24870105C0E114F104010560
:10091000110519F4E0E0F0E096C0628173819FEF69
:10092000623879070CF05BC022E83FEF261B370BDB
:100930002A3131052CF020E030E040E050E02AC0C0
:10094000B801A701022E04C0769567955795479583
:100950000A94D2F781E090E0A0E0B0E004C0880FF4
:10096000991FAA1FBB1F2A95D2F70197A109B109A8
:100970008E219F21A023B1230097A105B10521F06D
:1009800081E090E0A0E0B0E09A01AB01282B392B88
:100990004A2B5B2BDA01C9018F779070A070B07081
:1009A00080349105A105B10539F427FF09C0205C09
:1009B0003F4F4F4F5F4F04C0215C3F4F4F4F5F4F42
:1009C000E0E0F0E02030A0E03A07A0E04A07A0E431
:1009D0005A0710F0E1E0F0E079018A0127C06038A1
:1009E000710564F5FB01E158FF4FD801C7018F770E
:1009F0009070A070B07080349105A105B10539F4F4
:100A0000E7FE0DC080E490E0A0E0B0E004C08FE31A
:100A100090E0A0E0B0E0E80EF91E0A1F1B1F17FFD0
:100A200005C016950795F794E794319687E01695DB
:100A30000795F794E7948A95D1F705C0EE24FF2433
:100A40008701EFEFF0E06E2F679566276795902F8F
:100A50009F77D794DD24D7948E2F8695492F462BE8
:100A6000582F5D29B701CA011F910F91FF90EF9098
:100A7000DF900895FC01DB01408151812281622FCA
:100A80006F7770E0221F2227221F9381892F880F02
:100A9000822B282F30E0991F9927991F11969C933C
:100AA000119721153105A9F541155105610571050C
:100AB00011F482E037C082E89FEF13969C938E93E7
:100AC00012979A01AB0167E0220F331F441F551F95
:100AD0006A95D1F783E08C930DC0220F331F441F1A
:100AE000551F12968D919C911397019713969C9385
:100AF0008E931297203080E0380780E0480780E42A
:100B0000580758F314962D933D934D935C93179784
:100B100008952F3F310579F441155105610571059F
:100B200019F484E08C93089564FF03C081E08C93F2
:100B300012C01C9210C02F57304013963C932E9336
:100B4000129783E08C9387E0440F551F661F771F31
:100B50008A95D1F7706414964D935D936D937C9351
:100B6000179708951F93DC01FB019C91923008F4C4
:100B700047C08081823008F443C0943051F411960C
:100B80001C91843099F58181682F70E0611B710997
:100B90003FC0843021F0923031F48230B9F181814C
:100BA000882389F12DC011961C9111978230F1F0A4
:100BB00081811817D9F412962D913C911397828157
:100BC00093818217930794F028173907BCF0149685
:100BD0008D919D910D90BC91A02D248135814681F0
:100BE0005781281739074A075B0718F4112341F08A
:100BF0000AC082179307A407B50740F4112319F020
:100C000061E070E005C06FEF7FEF02C060E070E070
:100C1000CB011F91089590939D0180939C010895AD
:100C200090939F0180939E0108959093A1018093DA
:100C3000A00108959093A3018093A2010895909339
:100C4000A5018093A40108959093A7018093A60124
:100C500008958091980190919901A0919A01B09185
:100C60009B010196A11DB11D80939801909399015C
:100C7000A0939A01B0939B01809198019091990162
:100C8000A0919A01B0919B0181709070892B29F4F9
:100C9000E0919C01F0919D010995609198017091FE
:100CA000990180919A0190919B0125E030E040E00C
:100CB00050E00E94890A611571058105910529F4AA
:100CC000E0919E01F0919F010995609198017091CA
:100CD000990180919A0190919B012AE030E040E0D7
:100CE00050E00E94890A611571058105910529F47A
:100CF000E091A001F091A101099560919801709196
:100D0000990180919A0190919B0124E630E040E0A6
:100D100050E00E94890A611571058105910529F449
:100D2000E091A201F091A301099560919801709161
:100D3000990180919A0190919B0124EF31E040E06C
:100D400050E00E94890A611571058105910529F419
:100D5000E091A401F091A50109956091980170912D
:100D6000990180919A0190919B0128EE33E040E037
:100D700050E00E94890A611571058105910529F4E9
:100D8000E091A601F091A701099508950E947507C9
:100D900008950E94650789E296E00E9486070895FB
:100DA00081E487B986E886B9089597B1907E97B9AE
:100DB00097B18770892B87B9369A3699FECF24B1BF
:100DC00035B1C90108958CE683BF12BE1CBEBB9A23
:100DD00008958CBF089580E883BF12BE089585E80A
:100DE00083BF089580E883BF089512BE089582B737
:100DF000089580E280B911B884E486BF089590E038
:100E0000880F991F82B9089584EA86BF06B607FE47
:100E1000FDCF81B1887F883021F081B1887F80311A
:100E2000C1F70895880F816083B984EC86BF06B648
:100E300007FEFDCF81B1887F8034E1F7089590E00F
:100E4000880F991F83B984E886BF06B607FEFDCFD9
:100E500081B1887F8831E1F7089583B984E886BF3E
:100E600006B607FEFDCF81B1887F883221F081B1BF
:100E7000887F883BC1F7089584ED86BF089594EC80
:100E800006B607FEFDCF81B1887F803531F081B194
:100E9000887F803811F096BFF3CF84EC86BF83B192
:100EA000089584E886BF94E806B607FEFDCF81B1B9
:100EB000887F883531F081B1887F883811F096BFFE
:100EC000F3CF84E886BF83B108958CE08FBD88E0BE
:100ED0008EBD1BBC1ABC19BC18BC17BC16BC80E16B
:100EE00089BF8FB780688FBF08958DE790E09BBD65
:100EF0008ABD8BE08EBD089588E08EBD08951DBC2F
:100F00001CBC08952CB53DB5C90108959093A90165
:100F10008093A80108951F920F920FB60F9211248B
:100F20002F933F934F935F936F937F938F939F93F1
:100F3000AF93BF93EF93FF93E091A801F091A901C4
:100F4000309709F00995FF91EF91BF91AF919F9173
:100F50008F917F916F915F914F913F912F910F9062
:100F60000FBE0F901F90189580E885BD14BC0895A2
:100F700087E885BD089580E885BD089514BC08956F
:100F800084B508959B01AC0188E98AB986E880BDE3
:100F90008FB780688FBF94E0220F331F441F551F07
:100FA0009A95D1F760E072E18AE790E00E94890AA1
:100FB0002150304029B9232F330F330B2F7720BD19
:100FC00008955D9BFECF8CB90895FC0104C05D9B24
:100FD000FECF8CB9319680818823C9F75D9BFECF07
:100FE0001CB808958091AA019091AB01892B11F44E
:100FF00080E008958091AA019091AB0101979093B0
:10100000AB018093AA01E091AA01F091AB01E455F4
:10101000FE4F80810895BC014091AA015091AB011F
:1010200020E030E01EC08091AA019091AB01892B95
:1010300011F480E010C08091AA019091AB0101975A
:101040009093AB018093AA01E091AA01F091AB01CA
:10105000E455FE4F8081FB01E20FF31F80832F5F79
:101060003F4F24173507FCF208951F920F920FB6D9
:101070000F9211248F939F93EF93FF938091AA0176
:101080009091AB01449794F4E091AA01F091AB01E7
:101090008CB1E455FE4F80838091AA019091AB0101
:1010A00001969093AB018093AA0108C0E091AA0138
:1010B000F091AB018CB1E555FE4F8083FF91EF912C
:1010C0009F918F910F900FBE0F901F9018950E94C7
:1010D0000B0808950E94F20708950E94E5070895FD
:1010E0000E94E10708950E94C2070895823059F1D5
:1010F000833028F4882341F0813061F51CC08330AF
:1011000059F0843039F510C0C498C598C698C7986E
:1011100080E00E94E9060895862F0E94E906C49A9D
:10112000C79AC598C6980895862F0E94E906C49864
:10113000C798C59A06C0862F0E94E906C598C79829
:10114000C49AC69A0895862F0E94E906C59AC79A3E
:10115000C498C6980895BC9ABD9ABE9ABF9A0E9438
:10116000E306C498C598C698C79880E00E94E9062F
:101170000895AE9840ED57E0FA013197F1F7AF9A34
:10118000FA013197F1F79BB39F709BBB2BB3982F5C
:10119000907F922B9BBBAF98FA013197F1F7AE98F5
:1011A000AF9AFA013197F1F79BB39F709BBB9BB34A
:1011B0008295807F982B9BBBAF98CA010197F1F76E
:1011C0000895A69AA79A8AB3806F8ABB82E00E948C
:1011D000B90888E20E94B90880ED97E00197F1F71D
:1011E00081E00E94B9088CE00E94B908089581E06E
:1011F0000E94B9080895AE9A40ED57E0FA01319780
:10120000F1F7AF9AFA013197F1F79BB39F709BBB4F
:101210002BB3982F907F922B9BBBAF98FA013197FD
:10122000F1F7AE9AAF9AFA013197F1F79BB39F703D
:101230009BBB9BB38295807F982B9BBBAF98CA01C9
:101240000197F1F70895CF93DF93EC0102C00E945C
:10125000FB0889918823D9F7DF91CF9108958130D8
:1012600041F0813058F0823031F0833031F060E06D
:1012700005C0605C03C0605F01C0605B862F806852
:101280000E94B90808950F931F938A010E942F09A5
:10129000C8010E9423091F910F9108950F931F9376
:1012A000CF93DF938B01883090F4880F880F880FDD
:1012B000805C0E94B908C0E0D0E0F801EC0FFD1F8F
:1012C00080810E94FB082196C830D105B1F7DF91DB
:1012D000CF911F910F9108954AE050E00E94E20AD9
:1012E0000895EF92FF920F931F93813019F082308F
:1012F00051F515C0929880E197E20197F1F7929A23
:101300008AE18A95F1F79298839BFECF0E94B807F5
:10131000839B19C00E94C0078A3FD0F314C09498E1
:1013200080E197E20197F1F7949A8AE18A95F1F7C3
:101330009498859BFECF0E94B807859B04C00E94AD
:10134000C0078A3FD0F30E94BB070E94C00790E00D
:10135000A0E0B0E0BC01CD010E949D037B018C01A7
:101360000E94BE07C801B70126E933E44BE050E410
:101370000E941F020E944900CB011F910F91FF9014
:10138000EF900895813019F0823031F403C08A9AC9
:101390008B9802C08C9A8D980E94B4070895089586
:1013A00008950895089581E00E94C20982E00E9494
:1013B000C20960E875E280E090E00E9473080E9434
:1013C000AB080E94E1080E94F7080E94C9068FEC52
:1013D00099E00E940B0680ED99E00E94100687E3D9
:1013E0009AE00E94150682E09AE00E941A0681EDBA
:1013F00099E00E941F0682ED99E00E9424060E9457
:10140000C606FFCF81E00E947109A0E0B0E04E97D0
:10141000A105B10574F481E08093C00180E060E033
:1014200040E650E00E94430981E060E040E750E080
:101430000CC01092C00180E060E040E850E00E94E3
:10144000430981E060E040E850E00E94430982E007
:101450000E947109A0E0B0E04E97A105B10524F407
:1014600081E08093C10108951092C10108950E9406
:101470006A088535E9F1863588F4863409F18734C0
:1014800030F48333B9F1823409F042C01FC0823591
:1014900029F18335C1F18C34D9F522C0853741F16A
:1014A000863738F4873511F1873530F1883581F585
:1014B00027C08737D9F08737F8F0883749F520C03B
:1014C0008091C001813041F081E00BC08091C10169
:1014D000813011F082E005C080E003C084E001C0EB
:1014E00083E0609196010E94760808958FEF05C011
:1014F00080E803C080E401C080E2809396010895F3
:1015000010929601089580E0609196010E947608FD
:101510000895A1E21A2EAA1BBB1BFD010DC0AA1F34
:10152000BB1FEE1FFF1FA217B307E407F50720F04C
:10153000A21BB30BE40BF50B661F771F881F991FC7
:101540001A9469F760957095809590959B01AC0110
:10155000BD01CF0108952F923F924F925F926F92FB
:101560007F928F929F92AF92BF92CF92DF92EF9233
:10157000FF920F931F93CF93DF93CDB7DEB7CA1BB4
:10158000DB0B0FB6F894DEBF0FBECDBF09942A88DF
:10159000398848885F846E847D848C849B84AA8487
:1015A000B984C884DF80EE80FD800C811B81AA8114
:1015B000B981CE0FD11D0FB6F894DEBF0FBECDBFDF
:1015C000ED010895FB019F01E8944230C4F04532DB
:1015D000B4F44A3029F497FB1EF4909581959F4FFF
:1015E000642F77270E94130B805D8A330CF0895D8E
:1015F0008193CB010097A1F716F45DE2519310821D
:10160000C9010C94030BDC01FC01672F7191772356
:10161000E1F7329704C07C916D9370836291AE17AD
:10162000BF07C8F30895AA1BBB1B51E107C0AA1F3F
:10163000BB1FA617B70710F0A61BB70B881F991F73
:101640005A95A9F780959095BC01CD010895F8941D
:02165000FFCFCA
:1016520044616E6765722120202020202020200016
:10166200456D657267656E63792053746F702100F2
:10167200526F616420697320436C656172000000DF
:10168200000000000000000102020303030304043F
:1016920004040404040405050505050505050505FE
:1016A20005050505050506060606060606060606DE
:1016B20006060606060606060606060606060606C8
:1016C20006060606060607070707070707070707AE
:1016D2000707070707070707070707070707070798
:1016E2000707070707070707070707070707070788
:1016F2000707070707070707070707070707070778
:10170200070707070707080808080808080808085D
:101712000808080808080808080808080808080847
:101722000808080808080808080808080808080837
:101732000808080808080808080808080808080827
:101742000808080808080808080808080808080817
:101752000808080808080808080808080808080807
:1017620008080808080808080808080808080808F7
:1017720008080808080808080808080808080808E7
:081782000808080808088000AF
:00000001FF
